{
  "contractName": "Purse",
  "abi": [
    {
      "inputs": [],
      "stateMutability": "nonpayable",
      "type": "constructor"
    },
    {
      "anonymous": false,
      "inputs": [
        {
          "indexed": true,
          "internalType": "address",
          "name": "owner",
          "type": "address"
        },
        {
          "indexed": true,
          "internalType": "address",
          "name": "approved",
          "type": "address"
        },
        {
          "indexed": true,
          "internalType": "uint256",
          "name": "tokenId",
          "type": "uint256"
        }
      ],
      "name": "Approval",
      "type": "event"
    },
    {
      "anonymous": false,
      "inputs": [
        {
          "indexed": true,
          "internalType": "address",
          "name": "owner",
          "type": "address"
        },
        {
          "indexed": true,
          "internalType": "address",
          "name": "operator",
          "type": "address"
        },
        {
          "indexed": false,
          "internalType": "bool",
          "name": "approved",
          "type": "bool"
        }
      ],
      "name": "ApprovalForAll",
      "type": "event"
    },
    {
      "anonymous": false,
      "inputs": [
        {
          "indexed": true,
          "internalType": "address",
          "name": "previousOwner",
          "type": "address"
        },
        {
          "indexed": true,
          "internalType": "address",
          "name": "newOwner",
          "type": "address"
        }
      ],
      "name": "OwnershipTransferred",
      "type": "event"
    },
    {
      "anonymous": false,
      "inputs": [
        {
          "indexed": true,
          "internalType": "address",
          "name": "from",
          "type": "address"
        },
        {
          "indexed": true,
          "internalType": "address",
          "name": "to",
          "type": "address"
        },
        {
          "indexed": true,
          "internalType": "uint256",
          "name": "tokenId",
          "type": "uint256"
        }
      ],
      "name": "Transfer",
      "type": "event"
    },
    {
      "inputs": [
        {
          "internalType": "address",
          "name": "to",
          "type": "address"
        },
        {
          "internalType": "uint256",
          "name": "tokenId",
          "type": "uint256"
        }
      ],
      "name": "approve",
      "outputs": [],
      "stateMutability": "nonpayable",
      "type": "function"
    },
    {
      "inputs": [
        {
          "internalType": "address",
          "name": "owner",
          "type": "address"
        }
      ],
      "name": "balanceOf",
      "outputs": [
        {
          "internalType": "uint256",
          "name": "",
          "type": "uint256"
        }
      ],
      "stateMutability": "view",
      "type": "function"
    },
    {
      "inputs": [
        {
          "internalType": "uint256",
          "name": "tokenId",
          "type": "uint256"
        }
      ],
      "name": "getApproved",
      "outputs": [
        {
          "internalType": "address",
          "name": "",
          "type": "address"
        }
      ],
      "stateMutability": "view",
      "type": "function"
    },
    {
      "inputs": [
        {
          "internalType": "address",
          "name": "owner",
          "type": "address"
        },
        {
          "internalType": "address",
          "name": "operator",
          "type": "address"
        }
      ],
      "name": "isApprovedForAll",
      "outputs": [
        {
          "internalType": "bool",
          "name": "",
          "type": "bool"
        }
      ],
      "stateMutability": "view",
      "type": "function"
    },
    {
      "inputs": [],
      "name": "name",
      "outputs": [
        {
          "internalType": "string",
          "name": "",
          "type": "string"
        }
      ],
      "stateMutability": "view",
      "type": "function"
    },
    {
      "inputs": [],
      "name": "owner",
      "outputs": [
        {
          "internalType": "address",
          "name": "",
          "type": "address"
        }
      ],
      "stateMutability": "view",
      "type": "function"
    },
    {
      "inputs": [
        {
          "internalType": "uint256",
          "name": "tokenId",
          "type": "uint256"
        }
      ],
      "name": "ownerOf",
      "outputs": [
        {
          "internalType": "address",
          "name": "",
          "type": "address"
        }
      ],
      "stateMutability": "view",
      "type": "function"
    },
    {
      "inputs": [],
      "name": "renounceOwnership",
      "outputs": [],
      "stateMutability": "nonpayable",
      "type": "function"
    },
    {
      "inputs": [
        {
          "internalType": "address",
          "name": "from",
          "type": "address"
        },
        {
          "internalType": "address",
          "name": "to",
          "type": "address"
        },
        {
          "internalType": "uint256",
          "name": "tokenId",
          "type": "uint256"
        }
      ],
      "name": "safeTransferFrom",
      "outputs": [],
      "stateMutability": "nonpayable",
      "type": "function"
    },
    {
      "inputs": [
        {
          "internalType": "address",
          "name": "from",
          "type": "address"
        },
        {
          "internalType": "address",
          "name": "to",
          "type": "address"
        },
        {
          "internalType": "uint256",
          "name": "tokenId",
          "type": "uint256"
        },
        {
          "internalType": "bytes",
          "name": "_data",
          "type": "bytes"
        }
      ],
      "name": "safeTransferFrom",
      "outputs": [],
      "stateMutability": "nonpayable",
      "type": "function"
    },
    {
      "inputs": [
        {
          "internalType": "address",
          "name": "operator",
          "type": "address"
        },
        {
          "internalType": "bool",
          "name": "approved",
          "type": "bool"
        }
      ],
      "name": "setApprovalForAll",
      "outputs": [],
      "stateMutability": "nonpayable",
      "type": "function"
    },
    {
      "inputs": [
        {
          "internalType": "bytes4",
          "name": "interfaceId",
          "type": "bytes4"
        }
      ],
      "name": "supportsInterface",
      "outputs": [
        {
          "internalType": "bool",
          "name": "",
          "type": "bool"
        }
      ],
      "stateMutability": "view",
      "type": "function"
    },
    {
      "inputs": [],
      "name": "symbol",
      "outputs": [
        {
          "internalType": "string",
          "name": "",
          "type": "string"
        }
      ],
      "stateMutability": "view",
      "type": "function"
    },
    {
      "inputs": [
        {
          "internalType": "uint256",
          "name": "index",
          "type": "uint256"
        }
      ],
      "name": "tokenByIndex",
      "outputs": [
        {
          "internalType": "uint256",
          "name": "",
          "type": "uint256"
        }
      ],
      "stateMutability": "view",
      "type": "function"
    },
    {
      "inputs": [
        {
          "internalType": "address",
          "name": "owner",
          "type": "address"
        },
        {
          "internalType": "uint256",
          "name": "index",
          "type": "uint256"
        }
      ],
      "name": "tokenOfOwnerByIndex",
      "outputs": [
        {
          "internalType": "uint256",
          "name": "",
          "type": "uint256"
        }
      ],
      "stateMutability": "view",
      "type": "function"
    },
    {
      "inputs": [],
      "name": "totalSupply",
      "outputs": [
        {
          "internalType": "uint256",
          "name": "",
          "type": "uint256"
        }
      ],
      "stateMutability": "view",
      "type": "function"
    },
    {
      "inputs": [
        {
          "internalType": "address",
          "name": "from",
          "type": "address"
        },
        {
          "internalType": "address",
          "name": "to",
          "type": "address"
        },
        {
          "internalType": "uint256",
          "name": "tokenId",
          "type": "uint256"
        }
      ],
      "name": "transferFrom",
      "outputs": [],
      "stateMutability": "nonpayable",
      "type": "function"
    },
    {
      "inputs": [
        {
          "internalType": "address",
          "name": "newOwner",
          "type": "address"
        }
      ],
      "name": "transferOwnership",
      "outputs": [],
      "stateMutability": "nonpayable",
      "type": "function"
    },
    {
      "inputs": [
        {
          "internalType": "uint256",
          "name": "tokenId",
          "type": "uint256"
        }
      ],
      "name": "getWeapon",
      "outputs": [
        {
          "internalType": "string",
          "name": "",
          "type": "string"
        }
      ],
      "stateMutability": "view",
      "type": "function"
    },
    {
      "inputs": [
        {
          "internalType": "uint256",
          "name": "tokenId",
          "type": "uint256"
        }
      ],
      "name": "getCream",
      "outputs": [
        {
          "internalType": "string",
          "name": "",
          "type": "string"
        }
      ],
      "stateMutability": "view",
      "type": "function"
    },
    {
      "inputs": [
        {
          "internalType": "uint256",
          "name": "tokenId",
          "type": "uint256"
        }
      ],
      "name": "getMakeup",
      "outputs": [
        {
          "internalType": "string",
          "name": "",
          "type": "string"
        }
      ],
      "stateMutability": "view",
      "type": "function"
    },
    {
      "inputs": [
        {
          "internalType": "uint256",
          "name": "tokenId",
          "type": "uint256"
        }
      ],
      "name": "getCards",
      "outputs": [
        {
          "internalType": "string",
          "name": "",
          "type": "string"
        }
      ],
      "stateMutability": "view",
      "type": "function"
    },
    {
      "inputs": [
        {
          "internalType": "uint256",
          "name": "tokenId",
          "type": "uint256"
        }
      ],
      "name": "getAccessories",
      "outputs": [
        {
          "internalType": "string",
          "name": "",
          "type": "string"
        }
      ],
      "stateMutability": "view",
      "type": "function"
    },
    {
      "inputs": [
        {
          "internalType": "uint256",
          "name": "tokenId",
          "type": "uint256"
        }
      ],
      "name": "getSex",
      "outputs": [
        {
          "internalType": "string",
          "name": "",
          "type": "string"
        }
      ],
      "stateMutability": "view",
      "type": "function"
    },
    {
      "inputs": [
        {
          "internalType": "uint256",
          "name": "tokenId",
          "type": "uint256"
        }
      ],
      "name": "getNeck",
      "outputs": [
        {
          "internalType": "string",
          "name": "",
          "type": "string"
        }
      ],
      "stateMutability": "view",
      "type": "function"
    },
    {
      "inputs": [
        {
          "internalType": "uint256",
          "name": "tokenId",
          "type": "uint256"
        }
      ],
      "name": "getRing",
      "outputs": [
        {
          "internalType": "string",
          "name": "",
          "type": "string"
        }
      ],
      "stateMutability": "view",
      "type": "function"
    },
    {
      "inputs": [
        {
          "internalType": "uint256",
          "name": "tokenId",
          "type": "uint256"
        }
      ],
      "name": "tokenURI",
      "outputs": [
        {
          "internalType": "string",
          "name": "",
          "type": "string"
        }
      ],
      "stateMutability": "view",
      "type": "function"
    },
    {
      "inputs": [],
      "name": "mint",
      "outputs": [],
      "stateMutability": "nonpayable",
      "type": "function"
    },
    {
      "inputs": [
        {
          "internalType": "uint256",
          "name": "tokenId",
          "type": "uint256"
        }
      ],
      "name": "ownerClaim",
      "outputs": [],
      "stateMutability": "nonpayable",
      "type": "function"
    }
  ],
  "bytecode": "0x6080604052604051806101e001604052806040518060400160405280600981526020017f44657272696e676572000000000000000000000000000000000000000000000081525081526020016040518060400160405280600c81526020017f506570706572205370726179000000000000000000000000000000000000000081525081526020016040518060400160405280600581526020017f476c6f636b00000000000000000000000000000000000000000000000000000081525081526020016040518060400160405280600e81526020017f5368617270204b6579636861696e00000000000000000000000000000000000081525081526020016040518060400160405280600881526020017f53636973736f727300000000000000000000000000000000000000000000000081525081526020016040518060400160405280600f81526020017f4d6574616c204e61696c2046696c65000000000000000000000000000000000081525081526020016040518060400160405280601781526020017f42616c6c69737469632044617274204c61756e6368657200000000000000000081525081526020016040518060400160405280600581526020017f546173657200000000000000000000000000000000000000000000000000000081525081526020016040518060400160405280600a81526020017f466c6173686c696768740000000000000000000000000000000000000000000081525081526020016040518060400160405280600781526020017f57686973746c650000000000000000000000000000000000000000000000000081525081526020016040518060400160405280600881526020017f556d6272656c6c6100000000000000000000000000000000000000000000000081525081526020016040518060400160405280600881526020017f486169722050696e00000000000000000000000000000000000000000000000081525081526020016040518060400160405280600b81526020017f5361666574792050696e7300000000000000000000000000000000000000000081525081526020016040518060400160405280600e81526020017f42616c6c2d706f696e742050656e00000000000000000000000000000000000081525081526020016040518060400160405280600881526020017f547765657a657273000000000000000000000000000000000000000000000000815250815250600d90600f62000395929190620029de565b506040518061022001604052806040518060400160405280600981526020017f53756e73637265656e000000000000000000000000000000000000000000000081525081526020016040518060400160405280600b81526020017f4d6f6973747572697a657200000000000000000000000000000000000000000081525081526020016040518060400160405280600b81526020017f4261627920506f7764657200000000000000000000000000000000000000000081525081526020016040518060400160405280600e81526020017f526f6c6c65722050657266756d6500000000000000000000000000000000000081525081526020016040518060400160405280600981526020017f576574205769706573000000000000000000000000000000000000000000000081525081526020016040518060400160405280600981526020017f42616e642d41696473000000000000000000000000000000000000000000000081525081526020016040518060400160405280600981526020017f4e656f73706f72696e000000000000000000000000000000000000000000000081525081526020016040518060400160405280600f81526020017f426c6f7474696e6720506170657273000000000000000000000000000000000081525081526020016040518060400160405280601081526020017f537461696e2d6572617365722050656e0000000000000000000000000000000081525081526020016040518060400160405280600b81526020017f48616e64204c6f74696f6e00000000000000000000000000000000000000000081525081526020016040518060400160405280600e81526020017f48616e642053616e6974697a657200000000000000000000000000000000000081525081526020016040518060400160405280600581526020017f4d696e747300000000000000000000000000000000000000000000000000000081525081526020016040518060400160405280600781526020017f546973737565730000000000000000000000000000000000000000000000000081525081526020016040518060400160405280600581526020017f416476696c00000000000000000000000000000000000000000000000000000081525081526020016040518060400160405280600781526020017f54616d706f6e730000000000000000000000000000000000000000000000000081525081526020016040518060400160405280600d81526020017f53616e697461727920506164730000000000000000000000000000000000000081525081526020016040518060400160405280600981526020017f44656f646572616e740000000000000000000000000000000000000000000000815250815250600e9060116200079d92919062002a45565b506040518061020001604052806040518060400160405280600c81526020017f526564204c6970737469636b000000000000000000000000000000000000000081525081526020016040518060400160405280600d81526020017f50696e6b204c6970737469636b0000000000000000000000000000000000000081525081526020016040518060400160405280600881526020017f4c69702042616c6d00000000000000000000000000000000000000000000000081525081526020016040518060400160405280600a81526020017f4368617020537469636b0000000000000000000000000000000000000000000081525081526020016040518060400160405280600981526020017f4c697020476c6f7373000000000000000000000000000000000000000000000081525081526020016040518060400160405280600881526020017f4579656c696e657200000000000000000000000000000000000000000000000081525081526020016040518060400160405280601081526020017f506f77646572656420436f6d706163740000000000000000000000000000000081525081526020016040518060400160405280600781526020017f4d6173636172610000000000000000000000000000000000000000000000000081525081526020016040518060400160405280600a81526020017f466f756e646174696f6e0000000000000000000000000000000000000000000081525081526020016040518060400160405280600581526020017f426c75736800000000000000000000000000000000000000000000000000000081525081526020016040518060400160405280600781526020017f42726f6e7a65720000000000000000000000000000000000000000000000000081525081526020016040518060400160405280600b81526020017f436f6e746f7572204b697400000000000000000000000000000000000000000081525081526020016040518060400160405280600781526020017f436f76657275700000000000000000000000000000000000000000000000000081525081526020016040518060400160405280600981526020017f4c6970204c696e6572000000000000000000000000000000000000000000000081525081526020016040518060400160405280600a81526020017f42726f772042727573680000000000000000000000000000000000000000000081525081526020016040518060400160405280600b81526020017f4e61696c20506f6c697368000000000000000000000000000000000000000000815250815250600f90601062000b6a92919062002aac565b506040518061018001604052806040518060400160405280600881526020017f50617373706f727400000000000000000000000000000000000000000000000081525081526020016040518060400160405280601081526020017f4472697665722773204c6963656e73650000000000000000000000000000000081525081526020016040518060400160405280600f81526020017f53746174652d697373756564204944000000000000000000000000000000000081525081526020016040518060400160405280601381526020017f47796d204d656d6265727368697020436172640000000000000000000000000081525081526020016040518060400160405280601981526020017f57617265686f757365204d656d6265727368697020436172640000000000000081525081526020016040518060400160405280600c81526020017f4c6962726172792043617264000000000000000000000000000000000000000081525081526020016040518060400160405280601481526020017f536f6369616c205365637572697479204361726400000000000000000000000081525081526020016040518060400160405280601181526020017f426972746820436572746966696361746500000000000000000000000000000081525081526020016040518060400160405280600b81526020017f437265646974204361726400000000000000000000000000000000000000000081525081526020016040518060400160405280600a81526020017f446562697420436172640000000000000000000000000000000000000000000081525081526020016040518060400160405280600c81526020017f4d65646963616c2043617264000000000000000000000000000000000000000081525081526020016040518060400160405280600d81526020017f4269727468646179204361726400000000000000000000000000000000000000815250815250601090600c62000e4b92919062002b13565b50604051806101c001604052806040518060400160405280600581526020017f536361726600000000000000000000000000000000000000000000000000000081525081526020016040518060400160405280600681526020017f476c6f766573000000000000000000000000000000000000000000000000000081525081526020016040518060400160405280600881526020017f45617272696e677300000000000000000000000000000000000000000000000081525081526020016040518060400160405280600881526020017f42726163656c657400000000000000000000000000000000000000000000000081525081526020016040518060400160405280600581526020017f576174636800000000000000000000000000000000000000000000000000000081525081526020016040518060400160405280600881526020017f41726d2042616e6400000000000000000000000000000000000000000000000081525081526020016040518060400160405280600f81526020017f4669746e65737320547261636b6572000000000000000000000000000000000081525081526020016040518060400160405280600b81526020017f536d61727420576174636800000000000000000000000000000000000000000081525081526020016040518060400160405280600c81526020017f42616c6c657420466c617473000000000000000000000000000000000000000081525081526020016040518060400160405280600f81526020017f537472617070792053616e64616c73000000000000000000000000000000000081525081526020016040518060400160405280600781526020017f42616e676c65730000000000000000000000000000000000000000000000000081525081526020016040518060400160405280601281526020017f41766961746f722053756e676c6173736573000000000000000000000000000081525081526020016040518060400160405280601081526020017f4769616e742053756e676c61737365730000000000000000000000000000000081525081526020016040518060400160405280601581526020017f447275672053746f72652053756e676c61737365730000000000000000000000815250815250601190600e620011a292919062002b7a565b506040518061014001604052806040518060400160405280600781526020017f436f6e646f6d730000000000000000000000000000000000000000000000000081525081526020016040518060400160405280600781526020017f4d61676e756d730000000000000000000000000000000000000000000000000081525081526020016040518060400160405280600881526020017f5669627261746f7200000000000000000000000000000000000000000000000081525081526020016040518060400160405280600d81526020017f506f636b657420526f636b65740000000000000000000000000000000000000081525081526020016040518060400160405280600f81526020017f46757272792048616e646375666673000000000000000000000000000000000081525081526020016040518060400160405280600e81526020017f53696c6b20426c696e64666f6c6400000000000000000000000000000000000081525081526020016040518060400160405280600a81526020017f546865205261626269740000000000000000000000000000000000000000000081525081526020016040518060400160405280601281526020017f48697461636869204d616769632057616e64000000000000000000000000000081525081526020016040518060400160405280600681526020017f506164646c65000000000000000000000000000000000000000000000000000081525081526020016040518060400160405280600481526020017f4c75626500000000000000000000000000000000000000000000000000000000815250815250601290600a6200140d92919062002be1565b506040518060c001604052806040518060400160405280600881526020017f4e65636b6c61636500000000000000000000000000000000000000000000000081525081526020016040518060400160405280600781526020017f50656e64616e740000000000000000000000000000000000000000000000000081525081526020016040518060400160405280600681526020017f43686f6b6572000000000000000000000000000000000000000000000000000081525081526020016040518060400160405280600681526020017f436f6c6c6172000000000000000000000000000000000000000000000000000081525081526020016040518060400160405280600e81526020017f4c6f6e67204e65636b6c6163657300000000000000000000000000000000000081525081526020016040518060400160405280600d81526020017f476f6c64204e65636b6c6163650000000000000000000000000000000000000081525081525060139060066200158b92919062002c48565b506040518060a001604052806040518060400160405280600f81526020017f456e676167656d656e742052696e67000000000000000000000000000000000081525081526020016040518060400160405280600c81526020017f57656464696e672052696e67000000000000000000000000000000000000000081525081526020016040518060400160405280600c81526020017f50726f6d6973652052696e67000000000000000000000000000000000000000081525081526020016040518060400160405280600b81526020017f5075726974792052696e6700000000000000000000000000000000000000000081525081526020016040518060400160405280601181526020017f496e646570656e64656e63652052696e670000000000000000000000000000008152508152506014906005620016ce92919062002caf565b506040518061020001604052806040518060400160405280600881526020017f6f6620477563636900000000000000000000000000000000000000000000000081525081526020016040518060400160405280600981526020017f6f66204368616e656c000000000000000000000000000000000000000000000081525081526020016040518060400160405280600d81526020017f6f662042616c656e63696167610000000000000000000000000000000000000081525081526020016040518060400160405280600a81526020017f6f6620566572736163650000000000000000000000000000000000000000000081525081526020016040518060400160405280600881526020017f6f6620507261646100000000000000000000000000000000000000000000000081525081526020016040518060400160405280600b81526020017f6f6620546f6d20466f726400000000000000000000000000000000000000000081525081526020016040518060400160405280600981526020017f6f66204865726d6573000000000000000000000000000000000000000000000081525081526020016040518060400160405280600881526020017f6f662046656e646900000000000000000000000000000000000000000000000081525081526020016040518060400160405280600b81526020017f6f6620427572626572727900000000000000000000000000000000000000000081525081526020016040518060400160405280600b81526020017f6f6620476976656e63687900000000000000000000000000000000000000000081525081526020016040518060400160405280600a81526020017f6f662042756c676172690000000000000000000000000000000000000000000081525081526020016040518060400160405280600981526020017f6f662041726d616e69000000000000000000000000000000000000000000000081525081526020016040518060400160405280601081526020017f6f66204c6f7569732056756974746f6e0000000000000000000000000000000081525081526020016040518060400160405280601181526020017f6f662043687269737469616e2044696f7200000000000000000000000000000081525081526020016040518060400160405280600f81526020017f6f662043616c76696e204b6c65696e000000000000000000000000000000000081525081526020016040518060400160405280600e81526020017f6f66204d617263204a61636f6273000000000000000000000000000000000000815250815250601590601062001a9b92919062002aac565b506040518061060001604052806040518060400160405280600b81526020017f4167652d44656679696e6700000000000000000000000000000000000000000081525081526020016040518060400160405280600981526020017f426564617a7a6c6564000000000000000000000000000000000000000000000081525081526020016040518060400160405280600981526020017f537061726b6c696e67000000000000000000000000000000000000000000000081525081526020016040518060400160405280600781526020017f4469616d6f6e640000000000000000000000000000000000000000000000000081525081526020016040518060400160405280600781526020017f436f75747572650000000000000000000000000000000000000000000000000081525081526020016040518060400160405280600781526020017f426573706f6b650000000000000000000000000000000000000000000000000081525081526020016040518060400160405280600681526020017f437573746f6d000000000000000000000000000000000000000000000000000081525081526020016040518060400160405280600d81526020017f4c61737420536561736f6e27730000000000000000000000000000000000000081525081526020016040518060400160405280600d81526020017f5468697320536561736f6e27730000000000000000000000000000000000000081525081526020016040518060400160405280600a81526020017f466c6174746572696e670000000000000000000000000000000000000000000081525081526020016040518060400160405280600981526020017f42656175746966756c000000000000000000000000000000000000000000000081525081526020016040518060400160405280600681526020017f4c6f76656c79000000000000000000000000000000000000000000000000000081525081526020016040518060400160405280600781526020017f416e67656c69630000000000000000000000000000000000000000000000000081525081526020016040518060400160405280600581526020017f537765657400000000000000000000000000000000000000000000000000000081525081526020016040518060400160405280600681526020017f44656d757265000000000000000000000000000000000000000000000000000081525081526020016040518060400160405280600681526020017f466965726365000000000000000000000000000000000000000000000000000081525081526020016040518060400160405280600581526020017f426173696300000000000000000000000000000000000000000000000000000081525081526020016040518060400160405280600581526020017f46616e637900000000000000000000000000000000000000000000000000000081525081526020016040518060400160405280600681526020017f4c7578757279000000000000000000000000000000000000000000000000000081525081526020016040518060400160405280600981526020017f4578636c7573697665000000000000000000000000000000000000000000000081525081526020016040518060400160405280600781526020017f5370656369616c0000000000000000000000000000000000000000000000000081525081526020016040518060400160405280600981526020017f436865726973686564000000000000000000000000000000000000000000000081525081526020016040518060400160405280600881526020017f50726563696f757300000000000000000000000000000000000000000000000081525081526020016040518060400160405280600881526020017f596f75746866756c00000000000000000000000000000000000000000000000081525081526020016040518060400160405280600581526020017f436c65616e00000000000000000000000000000000000000000000000000000081525081526020016040518060400160405280600781526020017f5363656e7465640000000000000000000000000000000000000000000000000081525081526020016040518060400160405280600b81526020017f427269676874656e696e6700000000000000000000000000000000000000000081525081526020016040518060400160405280600a81526020017f4c69676874656e696e670000000000000000000000000000000000000000000081525081526020016040518060400160405280600981526020017f536d6f6f7468696e67000000000000000000000000000000000000000000000081525081526020016040518060400160405280600a81526020017f436c6172696679696e670000000000000000000000000000000000000000000081525081526020016040518060400160405280600481526020017f536578790000000000000000000000000000000000000000000000000000000081525081526020016040518060400160405280600681526020017f53756c747279000000000000000000000000000000000000000000000000000081525081526020016040518060400160405280600a81526020017f566f6c757074756f75730000000000000000000000000000000000000000000081525081526020016040518060400160405280600581526020017f437572767900000000000000000000000000000000000000000000000000000081525081526020016040518060400160405280600781526020017f416e74697175650000000000000000000000000000000000000000000000000081525081526020016040518060400160405280600781526020017f56696e746167650000000000000000000000000000000000000000000000000081525081526020016040518060400160405280600581526020017f456c69746500000000000000000000000000000000000000000000000000000081525081526020016040518060400160405280600781526020017f5761726d696e670000000000000000000000000000000000000000000000000081525081526020016040518060400160405280600a81526020017f436f6d666f7274696e670000000000000000000000000000000000000000000081525081526020016040518060400160405280600481526020017f536f66740000000000000000000000000000000000000000000000000000000081525081526020016040518060400160405280600681526020017f466c75666679000000000000000000000000000000000000000000000000000081525081526020016040518060400160405280600581526020017f467572727900000000000000000000000000000000000000000000000000000081525081526020016040518060400160405280600481526020017f466175780000000000000000000000000000000000000000000000000000000081525081526020016040518060400160405280600981526020017f496d69746174696f6e000000000000000000000000000000000000000000000081525081526020016040518060400160405280600681526020017f4461696e7479000000000000000000000000000000000000000000000000000081525081526020016040518060400160405280600881526020017f46656d696e696e6500000000000000000000000000000000000000000000000081525081526020016040518060400160405280600881526020017f476c6f72696f757300000000000000000000000000000000000000000000000081525081526020016040518060400160405280600b81526020017f496e646570656e64656e740000000000000000000000000000000000000000008152508152506016906030620025c892919062002d16565b506040518061014001604052806040518060400160405280600881526020017f506c65617375726500000000000000000000000000000000000000000000000081525081526020016040518060400160405280600481526020017f53696c6b0000000000000000000000000000000000000000000000000000000081525081526020016040518060400160405280600481526020017f476c6f770000000000000000000000000000000000000000000000000000000081525081526020016040518060400160405280600d81526020017f436f6d6d756e69636174696f6e0000000000000000000000000000000000000081525081526020016040518060400160405280600d81526020017f556e6465727374616e64696e670000000000000000000000000000000000000081525081526020016040518060400160405280600481526020017f4c6f76650000000000000000000000000000000000000000000000000000000081525081526020016040518060400160405280600581526020017f536861726500000000000000000000000000000000000000000000000000000081525081526020016040518060400160405280600781526020017f436f6d666f72740000000000000000000000000000000000000000000000000081525081526020016040518060400160405280600681526020017f5761726d7468000000000000000000000000000000000000000000000000000081525081526020016040518060400160405280600681526020017f5361666574790000000000000000000000000000000000000000000000000000815250815250601790600a6200283392919062002be1565b503480156200284157600080fd5b506040518060400160405280600581526020017f50757273650000000000000000000000000000000000000000000000000000008152506040518060400160405280600581526020017f50555253450000000000000000000000000000000000000000000000000000008152508160009080519060200190620028c692919062002d7d565b508060019080519060200190620028df92919062002d7d565b5050506001600a819055506200290a620028fe6200291060201b60201c565b6200291860201b60201c565b62002f00565b600033905090565b6000600b60009054906101000a900473ffffffffffffffffffffffffffffffffffffffff16905081600b60006101000a81548173ffffffffffffffffffffffffffffffffffffffff021916908373ffffffffffffffffffffffffffffffffffffffff1602179055508173ffffffffffffffffffffffffffffffffffffffff168173ffffffffffffffffffffffffffffffffffffffff167f8be0079c531659141344cd1fd0a4f28419497f9722a3daafe3b4186f6b6457e060405160405180910390a35050565b82805482825590600052602060002090810192821562002a32579160200282015b8281111562002a3157825182908051906020019062002a2092919062002d7d565b5091602001919060010190620029ff565b5b50905062002a41919062002e0e565b5090565b82805482825590600052602060002090810192821562002a99579160200282015b8281111562002a9857825182908051906020019062002a8792919062002d7d565b509160200191906001019062002a66565b5b50905062002aa8919062002e0e565b5090565b82805482825590600052602060002090810192821562002b00579160200282015b8281111562002aff57825182908051906020019062002aee92919062002d7d565b509160200191906001019062002acd565b5b50905062002b0f919062002e0e565b5090565b82805482825590600052602060002090810192821562002b67579160200282015b8281111562002b6657825182908051906020019062002b5592919062002d7d565b509160200191906001019062002b34565b5b50905062002b76919062002e0e565b5090565b82805482825590600052602060002090810192821562002bce579160200282015b8281111562002bcd57825182908051906020019062002bbc92919062002d7d565b509160200191906001019062002b9b565b5b50905062002bdd919062002e0e565b5090565b82805482825590600052602060002090810192821562002c35579160200282015b8281111562002c3457825182908051906020019062002c2392919062002d7d565b509160200191906001019062002c02565b5b50905062002c44919062002e0e565b5090565b82805482825590600052602060002090810192821562002c9c579160200282015b8281111562002c9b57825182908051906020019062002c8a92919062002d7d565b509160200191906001019062002c69565b5b50905062002cab919062002e0e565b5090565b82805482825590600052602060002090810192821562002d03579160200282015b8281111562002d0257825182908051906020019062002cf192919062002d7d565b509160200191906001019062002cd0565b5b50905062002d12919062002e0e565b5090565b82805482825590600052602060002090810192821562002d6a579160200282015b8281111562002d6957825182908051906020019062002d5892919062002d7d565b509160200191906001019062002d37565b5b50905062002d79919062002e0e565b5090565b82805462002d8b9062002e9b565b90600052602060002090601f01602090048101928262002daf576000855562002dfb565b82601f1062002dca57805160ff191683800117855562002dfb565b8280016001018555821562002dfb579182015b8281111562002dfa57825182559160200191906001019062002ddd565b5b50905062002e0a919062002e36565b5090565b5b8082111562002e32576000818162002e28919062002e55565b5060010162002e0f565b5090565b5b8082111562002e5157600081600090555060010162002e37565b5090565b50805462002e639062002e9b565b6000825580601f1062002e77575062002e98565b601f01602090049060005260206000209081019062002e97919062002e36565b5b50565b6000600282049050600182168062002eb457607f821691505b6020821081141562002ecb5762002eca62002ed1565b5b50919050565b7f4e487b7100000000000000000000000000000000000000000000000000000000600052602260045260246000fd5b615a768062002f106000396000f3fe608060405234801561001057600080fd5b50600436106101cf5760003560e01c806363f9795c116101045780639e41b73f116100a2578063c0f1dac911610071578063c0f1dac914610578578063c87b56dd146105a8578063e985e9c5146105d8578063f2fde38b14610608576101cf565b80639e41b73f146104e0578063a22cb46514610510578063b88d4fde1461052c578063c08a5dd514610548576101cf565b8063715018a6116100de578063715018a61461046a57806378efeb25146104745780638da5cb5b146104a457806395d89b41146104c2576101cf565b806363f9795c146103da57806367209aa81461040a57806370a082311461043a576101cf565b806323b872dd11610171578063434f48c41161014b578063434f48c41461032e5780634f6ccce71461034a5780635e4b9f791461037a5780636352211e146103aa576101cf565b806323b872dd146102c65780632f745c59146102e257806342842e0e14610312576101cf565b8063081812fc116101ad578063081812fc14610252578063095ea7b3146102825780631249c58b1461029e57806318160ddd146102a8576101cf565b806301ffc9a7146101d457806304ed02f61461020457806306fdde0314610234575b600080fd5b6101ee60048036038101906101e9919061414f565b610624565b6040516101fb9190614961565b60405180910390f35b61021e600480360381019061021991906141a1565b61069e565b60405161022b919061497c565b60405180910390f35b61023c6107b8565b604051610249919061497c565b60405180910390f35b61026c600480360381019061026791906141a1565b61084a565b60405161027991906148fa565b60405180910390f35b61029c60048036038101906102979190614113565b6108cf565b005b6102a66109e7565b005b6102b0610a05565b6040516102bd9190614bfe565b60405180910390f35b6102e060048036038101906102db919061400d565b610a12565b005b6102fc60048036038101906102f79190614113565b610a72565b6040516103099190614bfe565b60405180910390f35b61032c6004803603810190610327919061400d565b610b17565b005b610348600480360381019061034391906141a1565b610b37565b005b610364600480360381019061035f91906141a1565b610c6e565b6040516103719190614bfe565b60405180910390f35b610394600480360381019061038f91906141a1565b610d05565b6040516103a1919061497c565b60405180910390f35b6103c460048036038101906103bf91906141a1565b610e1f565b6040516103d191906148fa565b60405180910390f35b6103f460048036038101906103ef91906141a1565b610ed1565b604051610401919061497c565b60405180910390f35b610424600480360381019061041f91906141a1565b610feb565b604051610431919061497c565b60405180910390f35b610454600480360381019061044f9190613fa8565b611105565b6040516104619190614bfe565b60405180910390f35b6104726111bd565b005b61048e600480360381019061048991906141a1565b611245565b60405161049b919061497c565b60405180910390f35b6104ac61135f565b6040516104b991906148fa565b60405180910390f35b6104ca611389565b6040516104d7919061497c565b60405180910390f35b6104fa60048036038101906104f591906141a1565b61141b565b604051610507919061497c565b60405180910390f35b61052a600480360381019061052591906140d7565b611535565b005b6105466004803603810190610541919061405c565b6116b6565b005b610562600480360381019061055d91906141a1565b611718565b60405161056f919061497c565b60405180910390f35b610592600480360381019061058d91906141a1565b611832565b60405161059f919061497c565b60405180910390f35b6105c260048036038101906105bd91906141a1565b61194c565b6040516105cf919061497c565b60405180910390f35b6105f260048036038101906105ed9190613fd1565b6123f0565b6040516105ff9190614961565b60405180910390f35b610622600480360381019061061d9190613fa8565b612484565b005b60007f780e9d63000000000000000000000000000000000000000000000000000000007bffffffffffffffffffffffffffffffffffffffffffffffffffffffff1916827bffffffffffffffffffffffffffffffffffffffffffffffffffffffff1916148061069757506106968261257c565b5b9050919050565b60606107b1826040518060400160405280600581526020017f43415244530000000000000000000000000000000000000000000000000000008152506010805480602002602001604051908101604052809291908181526020016000905b828210156107a857838290600052602060002001805461071b90614e92565b80601f016020809104026020016040519081016040528092919081815260200182805461074790614e92565b80156107945780601f1061076957610100808354040283529160200191610794565b820191906000526020600020905b81548152906001019060200180831161077757829003601f168201915b5050505050815260200190600101906106fc565b5050505061265e565b9050919050565b6060600080546107c790614e92565b80601f01602080910402602001604051908101604052809291908181526020018280546107f390614e92565b80156108405780601f1061081557610100808354040283529160200191610840565b820191906000526020600020905b81548152906001019060200180831161082357829003601f168201915b5050505050905090565b600061085582612b97565b610894576040517f08c379a000000000000000000000000000000000000000000000000000000000815260040161088b90614afe565b60405180910390fd5b6004600083815260200190815260200160002060009054906101000a900473ffffffffffffffffffffffffffffffffffffffff169050919050565b60006108da82610e1f565b90508073ffffffffffffffffffffffffffffffffffffffff168373ffffffffffffffffffffffffffffffffffffffff16141561094b576040517f08c379a000000000000000000000000000000000000000000000000000000000815260040161094290614b7e565b60405180910390fd5b8073ffffffffffffffffffffffffffffffffffffffff1661096a612c03565b73ffffffffffffffffffffffffffffffffffffffff161480610999575061099881610993612c03565b6123f0565b5b6109d8576040517f08c379a00000000000000000000000000000000000000000000000000000000081526004016109cf90614a7e565b60405180910390fd5b6109e28383612c0b565b505050565b6109f1600c612cc4565b610a036109fe600c612cda565b612ce8565b565b6000600880549050905090565b610a23610a1d612c03565b82612da2565b610a62576040517f08c379a0000000000000000000000000000000000000000000000000000000008152600401610a5990614b9e565b60405180910390fd5b610a6d838383612e80565b505050565b6000610a7d83611105565b8210610abe576040517f08c379a0000000000000000000000000000000000000000000000000000000008152600401610ab59061499e565b60405180910390fd5b600660008473ffffffffffffffffffffffffffffffffffffffff1673ffffffffffffffffffffffffffffffffffffffff168152602001908152602001600020600083815260200190815260200160002054905092915050565b610b32838383604051806020016040528060008152506116b6565b505050565b6002600a541415610b7d576040517f08c379a0000000000000000000000000000000000000000000000000000000008152600401610b7490614bde565b60405180910390fd5b6002600a81905550610b8d612c03565b73ffffffffffffffffffffffffffffffffffffffff16610bab61135f565b73ffffffffffffffffffffffffffffffffffffffff1614610c01576040517f08c379a0000000000000000000000000000000000000000000000000000000008152600401610bf890614b1e565b60405180910390fd5b611e6181118015610c135750611f4981105b610c52576040517f08c379a0000000000000000000000000000000000000000000000000000000008152600401610c4990614b3e565b60405180910390fd5b610c63610c5d61135f565b826130dc565b6001600a8190555050565b6000610c78610a05565b8210610cb9576040517f08c379a0000000000000000000000000000000000000000000000000000000008152600401610cb090614bbe565b60405180910390fd5b60088281548110610cf3577f4e487b7100000000000000000000000000000000000000000000000000000000600052603260045260246000fd5b90600052602060002001549050919050565b6060610e18826040518060400160405280600581526020017f435245414d000000000000000000000000000000000000000000000000000000815250600e805480602002602001604051908101604052809291908181526020016000905b82821015610e0f578382906000526020600020018054610d8290614e92565b80601f0160208091040260200160405190810160405280929190818152602001828054610dae90614e92565b8015610dfb5780601f10610dd057610100808354040283529160200191610dfb565b820191906000526020600020905b815481529060010190602001808311610dde57829003601f168201915b505050505081526020019060010190610d63565b5050505061265e565b9050919050565b6000806002600084815260200190815260200160002060009054906101000a900473ffffffffffffffffffffffffffffffffffffffff169050600073ffffffffffffffffffffffffffffffffffffffff168173ffffffffffffffffffffffffffffffffffffffff161415610ec8576040517f08c379a0000000000000000000000000000000000000000000000000000000008152600401610ebf90614abe565b60405180910390fd5b80915050919050565b6060610fe4826040518060400160405280600681526020017f4d414b4555500000000000000000000000000000000000000000000000000000815250600f805480602002602001604051908101604052809291908181526020016000905b82821015610fdb578382906000526020600020018054610f4e90614e92565b80601f0160208091040260200160405190810160405280929190818152602001828054610f7a90614e92565b8015610fc75780601f10610f9c57610100808354040283529160200191610fc7565b820191906000526020600020905b815481529060010190602001808311610faa57829003601f168201915b505050505081526020019060010190610f2f565b5050505061265e565b9050919050565b60606110fe826040518060400160405280600481526020017f4e45434b000000000000000000000000000000000000000000000000000000008152506013805480602002602001604051908101604052809291908181526020016000905b828210156110f557838290600052602060002001805461106890614e92565b80601f016020809104026020016040519081016040528092919081815260200182805461109490614e92565b80156110e15780601f106110b6576101008083540402835291602001916110e1565b820191906000526020600020905b8154815290600101906020018083116110c457829003601f168201915b505050505081526020019060010190611049565b5050505061265e565b9050919050565b60008073ffffffffffffffffffffffffffffffffffffffff168273ffffffffffffffffffffffffffffffffffffffff161415611176576040517f08c379a000000000000000000000000000000000000000000000000000000000815260040161116d90614a9e565b60405180910390fd5b600360008373ffffffffffffffffffffffffffffffffffffffff1673ffffffffffffffffffffffffffffffffffffffff168152602001908152602001600020549050919050565b6111c5612c03565b73ffffffffffffffffffffffffffffffffffffffff166111e361135f565b73ffffffffffffffffffffffffffffffffffffffff1614611239576040517f08c379a000000000000000000000000000000000000000000000000000000000815260040161123090614b1e565b60405180910390fd5b61124360006130fa565b565b6060611358826040518060400160405280600381526020017f53455800000000000000000000000000000000000000000000000000000000008152506012805480602002602001604051908101604052809291908181526020016000905b8282101561134f5783829060005260206000200180546112c290614e92565b80601f01602080910402602001604051908101604052809291908181526020018280546112ee90614e92565b801561133b5780601f106113105761010080835404028352916020019161133b565b820191906000526020600020905b81548152906001019060200180831161131e57829003601f168201915b5050505050815260200190600101906112a3565b5050505061265e565b9050919050565b6000600b60009054906101000a900473ffffffffffffffffffffffffffffffffffffffff16905090565b60606001805461139890614e92565b80601f01602080910402602001604051908101604052809291908181526020018280546113c490614e92565b80156114115780601f106113e657610100808354040283529160200191611411565b820191906000526020600020905b8154815290600101906020018083116113f457829003601f168201915b5050505050905090565b606061152e826040518060400160405280600681526020017f574541504f4e0000000000000000000000000000000000000000000000000000815250600d805480602002602001604051908101604052809291908181526020016000905b8282101561152557838290600052602060002001805461149890614e92565b80601f01602080910402602001604051908101604052809291908181526020018280546114c490614e92565b80156115115780601f106114e657610100808354040283529160200191611511565b820191906000526020600020905b8154815290600101906020018083116114f457829003601f168201915b505050505081526020019060010190611479565b5050505061265e565b9050919050565b61153d612c03565b73ffffffffffffffffffffffffffffffffffffffff168273ffffffffffffffffffffffffffffffffffffffff1614156115ab576040517f08c379a00000000000000000000000000000000000000000000000000000000081526004016115a290614a3e565b60405180910390fd5b80600560006115b8612c03565b73ffffffffffffffffffffffffffffffffffffffff1673ffffffffffffffffffffffffffffffffffffffff16815260200190815260200160002060008473ffffffffffffffffffffffffffffffffffffffff1673ffffffffffffffffffffffffffffffffffffffff16815260200190815260200160002060006101000a81548160ff0219169083151502179055508173ffffffffffffffffffffffffffffffffffffffff16611665612c03565b73ffffffffffffffffffffffffffffffffffffffff167f17307eab39ab6107e8899845ad3d59bd9653f200f220920489ca2b5937696c31836040516116aa9190614961565b60405180910390a35050565b6116c76116c1612c03565b83612da2565b611706576040517f08c379a00000000000000000000000000000000000000000000000000000000081526004016116fd90614b9e565b60405180910390fd5b611712848484846131c0565b50505050565b606061182b826040518060400160405280600481526020017f52494e47000000000000000000000000000000000000000000000000000000008152506014805480602002602001604051908101604052809291908181526020016000905b8282101561182257838290600052602060002001805461179590614e92565b80601f01602080910402602001604051908101604052809291908181526020018280546117c190614e92565b801561180e5780601f106117e35761010080835404028352916020019161180e565b820191906000526020600020905b8154815290600101906020018083116117f157829003601f168201915b505050505081526020019060010190611776565b5050505061265e565b9050919050565b6060611945826040518060400160405280600b81526020017f4143434553534f524945530000000000000000000000000000000000000000008152506011805480602002602001604051908101604052809291908181526020016000905b8282101561193c5783829060005260206000200180546118af90614e92565b80601f01602080910402602001604051908101604052809291908181526020018280546118db90614e92565b80156119285780601f106118fd57610100808354040283529160200191611928565b820191906000526020600020905b81548152906001019060200180831161190b57829003601f168201915b505050505081526020019060010190611890565b5050505061265e565b9050919050565b6060611956613e88565b60405180610140016040528061010181526020016159186101019139816000601181106119ac577f4e487b7100000000000000000000000000000000000000000000000000000000600052603260045260246000fd5b60200201819052506119bd8361141b565b816001601181106119f7577f4e487b7100000000000000000000000000000000000000000000000000000000600052603260045260246000fd5b6020020181905250604051806060016040528060288152602001615a196028913981600260118110611a52577f4e487b7100000000000000000000000000000000000000000000000000000000600052603260045260246000fd5b6020020181905250611a6383610d05565b81600360118110611a9d577f4e487b7100000000000000000000000000000000000000000000000000000000600052603260045260246000fd5b60200201819052506040518060600160405280602881526020016157e46028913981600460118110611af8577f4e487b7100000000000000000000000000000000000000000000000000000000600052603260045260246000fd5b6020020181905250611b0983610ed1565b81600560118110611b43577f4e487b7100000000000000000000000000000000000000000000000000000000600052603260045260246000fd5b602002018190525060405180606001604052806028815260200161585e6028913981600660118110611b9e577f4e487b7100000000000000000000000000000000000000000000000000000000600052603260045260246000fd5b6020020181905250611baf8361069e565b81600760118110611be9577f4e487b7100000000000000000000000000000000000000000000000000000000600052603260045260246000fd5b60200201819052506040518060600160405280602981526020016158866029913981600860118110611c44577f4e487b7100000000000000000000000000000000000000000000000000000000600052603260045260246000fd5b6020020181905250611c5583611832565b81600960118110611c8f577f4e487b7100000000000000000000000000000000000000000000000000000000600052603260045260246000fd5b60200201819052506040518060600160405280602981526020016158356029913981600a60118110611cea577f4e487b7100000000000000000000000000000000000000000000000000000000600052603260045260246000fd5b6020020181905250611cfb83611245565b81600b60118110611d35577f4e487b7100000000000000000000000000000000000000000000000000000000600052603260045260246000fd5b60200201819052506040518060600160405280602981526020016158af6029913981600c60118110611d90577f4e487b7100000000000000000000000000000000000000000000000000000000600052603260045260246000fd5b6020020181905250611da183610feb565b81600d60118110611ddb577f4e487b7100000000000000000000000000000000000000000000000000000000600052603260045260246000fd5b602002018190525060405180606001604052806029815260200161580c6029913981600e60118110611e36577f4e487b7100000000000000000000000000000000000000000000000000000000600052603260045260246000fd5b6020020181905250611e4783611718565b81600f60118110611e81577f4e487b7100000000000000000000000000000000000000000000000000000000600052603260045260246000fd5b60200201819052506040518060400160405280600d81526020017f3c2f746578743e3c2f7376673e0000000000000000000000000000000000000081525081601060118110611ef9577f4e487b7100000000000000000000000000000000000000000000000000000000600052603260045260246000fd5b6020020181905250600081600060118110611f3d577f4e487b7100000000000000000000000000000000000000000000000000000000600052603260045260246000fd5b602002015182600160118110611f7c577f4e487b7100000000000000000000000000000000000000000000000000000000600052603260045260246000fd5b602002015183600260118110611fbb577f4e487b7100000000000000000000000000000000000000000000000000000000600052603260045260246000fd5b602002015184600360118110611ffa577f4e487b7100000000000000000000000000000000000000000000000000000000600052603260045260246000fd5b602002015185600460118110612039577f4e487b7100000000000000000000000000000000000000000000000000000000600052603260045260246000fd5b602002015186600560118110612078577f4e487b7100000000000000000000000000000000000000000000000000000000600052603260045260246000fd5b6020020151876006601181106120b7577f4e487b7100000000000000000000000000000000000000000000000000000000600052603260045260246000fd5b6020020151886007601181106120f6577f4e487b7100000000000000000000000000000000000000000000000000000000600052603260045260246000fd5b602002015189600860118110612135577f4e487b7100000000000000000000000000000000000000000000000000000000600052603260045260246000fd5b602002015160405160200161215299989796959493929190614707565b6040516020818303038152906040529050808260096011811061219e577f4e487b7100000000000000000000000000000000000000000000000000000000600052603260045260246000fd5b602002015183600a601181106121dd577f4e487b7100000000000000000000000000000000000000000000000000000000600052603260045260246000fd5b602002015184600b6011811061221c577f4e487b7100000000000000000000000000000000000000000000000000000000600052603260045260246000fd5b602002015185600c6011811061225b577f4e487b7100000000000000000000000000000000000000000000000000000000600052603260045260246000fd5b602002015186600d6011811061229a577f4e487b7100000000000000000000000000000000000000000000000000000000600052603260045260246000fd5b602002015187600e601181106122d9577f4e487b7100000000000000000000000000000000000000000000000000000000600052603260045260246000fd5b602002015188600f60118110612318577f4e487b7100000000000000000000000000000000000000000000000000000000600052603260045260246000fd5b602002015189601060118110612357577f4e487b7100000000000000000000000000000000000000000000000000000000600052603260045260246000fd5b602002015160405160200161237499989796959493929190614707565b604051602081830303815290604052905060006123c16123938661321c565b61239c846133c9565b6040516020016123ad9291906147e4565b6040516020818303038152906040526133c9565b9050806040516020016123d491906148d8565b6040516020818303038152906040529150819350505050919050565b6000600560008473ffffffffffffffffffffffffffffffffffffffff1673ffffffffffffffffffffffffffffffffffffffff16815260200190815260200160002060008373ffffffffffffffffffffffffffffffffffffffff1673ffffffffffffffffffffffffffffffffffffffff16815260200190815260200160002060009054906101000a900460ff16905092915050565b61248c612c03565b73ffffffffffffffffffffffffffffffffffffffff166124aa61135f565b73ffffffffffffffffffffffffffffffffffffffff1614612500576040517f08c379a00000000000000000000000000000000000000000000000000000000081526004016124f790614b1e565b60405180910390fd5b600073ffffffffffffffffffffffffffffffffffffffff168173ffffffffffffffffffffffffffffffffffffffff161415612570576040517f08c379a0000000000000000000000000000000000000000000000000000000008152600401612567906149de565b60405180910390fd5b612579816130fa565b50565b60007f80ac58cd000000000000000000000000000000000000000000000000000000007bffffffffffffffffffffffffffffffffffffffffffffffffffffffff1916827bffffffffffffffffffffffffffffffffffffffffffffffffffffffff1916148061264757507f5b5e139f000000000000000000000000000000000000000000000000000000007bffffffffffffffffffffffffffffffffffffffffffffffffffffffff1916827bffffffffffffffffffffffffffffffffffffffffffffffffffffffff1916145b80612657575061265682613587565b5b9050919050565b606060006126948461266f8761321c565b6040516020016126809291906146e3565b6040516020818303038152906040526135f1565b90506000838451836126a69190614f3e565b815181106126dd577f4e487b7100000000000000000000000000000000000000000000000000000000600052603260045260246000fd5b6020026020010151905060006015836126f69190614f3e565b9050600e811115612778578160158080549050856127149190614f3e565b8154811061274b577f4e487b7100000000000000000000000000000000000000000000000000000000600052603260045260246000fd5b906000526020600020016040516020016127669291906147b5565b60405160208183030381529060405291505b60118110612b8a57612788613eb0565b601680805490508561279a9190614f3e565b815481106127d1577f4e487b7100000000000000000000000000000000000000000000000000000000600052603260045260246000fd5b9060005260206000200180546127e690614e92565b80601f016020809104026020016040519081016040528092919081815260200182805461281290614e92565b801561285f5780601f106128345761010080835404028352916020019161285f565b820191906000526020600020905b81548152906001019060200180831161284257829003601f168201915b50505050508160006002811061289e577f4e487b7100000000000000000000000000000000000000000000000000000000600052603260045260246000fd5b602002018190525060178080549050856128b89190614f3e565b815481106128ef577f4e487b7100000000000000000000000000000000000000000000000000000000600052603260045260246000fd5b90600052602060002001805461290490614e92565b80601f016020809104026020016040519081016040528092919081815260200182805461293090614e92565b801561297d5780601f106129525761010080835404028352916020019161297d565b820191906000526020600020905b81548152906001019060200180831161296057829003601f168201915b5050505050816001600281106129bc577f4e487b7100000000000000000000000000000000000000000000000000000000600052603260045260246000fd5b60200201819052506013821015612a345780600060028110612a07577f4e487b7100000000000000000000000000000000000000000000000000000000600052603260045260246000fd5b602002015183604051602001612a1e929190614786565b6040516020818303038152906040529250612b88565b6013821415612ae45780600060028110612a77577f4e487b7100000000000000000000000000000000000000000000000000000000600052603260045260246000fd5b602002015181600160028110612ab6577f4e487b7100000000000000000000000000000000000000000000000000000000600052603260045260246000fd5b602002015184604051602001612ace93929190614829565b6040516020818303038152906040529250612b87565b80600060028110612b1e577f4e487b7100000000000000000000000000000000000000000000000000000000600052603260045260246000fd5b602002015181600160028110612b5d577f4e487b7100000000000000000000000000000000000000000000000000000000600052603260045260246000fd5b602002015184604051602001612b759392919061487b565b60405160208183030381529060405292505b5b505b8193505050509392505050565b60008073ffffffffffffffffffffffffffffffffffffffff166002600084815260200190815260200160002060009054906101000a900473ffffffffffffffffffffffffffffffffffffffff1673ffffffffffffffffffffffffffffffffffffffff1614159050919050565b600033905090565b816004600083815260200190815260200160002060006101000a81548173ffffffffffffffffffffffffffffffffffffffff021916908373ffffffffffffffffffffffffffffffffffffffff160217905550808273ffffffffffffffffffffffffffffffffffffffff16612c7e83610e1f565b73ffffffffffffffffffffffffffffffffffffffff167f8c5be1e5ebec7d5bd14f71427d1e84f3dd0314c0f7b2291e5b200ac8c7c3b92560405160405180910390a45050565b6001816000016000828254019250508190555050565b600081600001549050919050565b6002600a541415612d2e576040517f08c379a0000000000000000000000000000000000000000000000000000000008152600401612d2590614bde565b60405180910390fd5b6002600a81905550600081118015612d475750611e6281105b612d86576040517f08c379a0000000000000000000000000000000000000000000000000000000008152600401612d7d90614b3e565b60405180910390fd5b612d97612d91612c03565b826130dc565b6001600a8190555050565b6000612dad82612b97565b612dec576040517f08c379a0000000000000000000000000000000000000000000000000000000008152600401612de390614a5e565b60405180910390fd5b6000612df783610e1f565b90508073ffffffffffffffffffffffffffffffffffffffff168473ffffffffffffffffffffffffffffffffffffffff161480612e6657508373ffffffffffffffffffffffffffffffffffffffff16612e4e8461084a565b73ffffffffffffffffffffffffffffffffffffffff16145b80612e775750612e7681856123f0565b5b91505092915050565b8273ffffffffffffffffffffffffffffffffffffffff16612ea082610e1f565b73ffffffffffffffffffffffffffffffffffffffff1614612ef6576040517f08c379a0000000000000000000000000000000000000000000000000000000008152600401612eed90614b5e565b60405180910390fd5b600073ffffffffffffffffffffffffffffffffffffffff168273ffffffffffffffffffffffffffffffffffffffff161415612f66576040517f08c379a0000000000000000000000000000000000000000000000000000000008152600401612f5d90614a1e565b60405180910390fd5b612f71838383613624565b612f7c600082612c0b565b6001600360008573ffffffffffffffffffffffffffffffffffffffff1673ffffffffffffffffffffffffffffffffffffffff1681526020019081526020016000206000828254612fcc9190614da8565b925050819055506001600360008473ffffffffffffffffffffffffffffffffffffffff1673ffffffffffffffffffffffffffffffffffffffff16815260200190815260200160002060008282546130239190614cc7565b92505081905550816002600083815260200190815260200160002060006101000a81548173ffffffffffffffffffffffffffffffffffffffff021916908373ffffffffffffffffffffffffffffffffffffffff160217905550808273ffffffffffffffffffffffffffffffffffffffff168473ffffffffffffffffffffffffffffffffffffffff167fddf252ad1be2c89b69c2b068fc378daa952ba7f163c4a11628f55a4df523b3ef60405160405180910390a4505050565b6130f6828260405180602001604052806000815250613738565b5050565b6000600b60009054906101000a900473ffffffffffffffffffffffffffffffffffffffff16905081600b60006101000a81548173ffffffffffffffffffffffffffffffffffffffff021916908373ffffffffffffffffffffffffffffffffffffffff1602179055508173ffffffffffffffffffffffffffffffffffffffff168173ffffffffffffffffffffffffffffffffffffffff167f8be0079c531659141344cd1fd0a4f28419497f9722a3daafe3b4186f6b6457e060405160405180910390a35050565b6131cb848484612e80565b6131d784848484613793565b613216576040517f08c379a000000000000000000000000000000000000000000000000000000000815260040161320d906149be565b60405180910390fd5b50505050565b60606000821415613264576040518060400160405280600181526020017f300000000000000000000000000000000000000000000000000000000000000081525090506133c4565b600082905060005b6000821461329657808061327f90614ef5565b915050600a8261328f9190614d1d565b915061326c565b60008167ffffffffffffffff8111156132d8577f4e487b7100000000000000000000000000000000000000000000000000000000600052604160045260246000fd5b6040519080825280601f01601f19166020018201604052801561330a5781602001600182028036833780820191505090505b5090505b600085146133bd576001826133239190614da8565b9150600a856133329190614f3e565b603061333e9190614cc7565b60f81b81838151811061337a577f4e487b7100000000000000000000000000000000000000000000000000000000600052603260045260246000fd5b60200101907effffffffffffffffffffffffffffffffffffffffffffffffffffffffffffff1916908160001a905350600a856133b69190614d1d565b945061330e565b8093505050505b919050565b606060008251905060008114156133f25760405180602001604052806000815250915050613582565b600060036002836134039190614cc7565b61340d9190614d1d565b60046134199190614d4e565b9050600060208261342a9190614cc7565b67ffffffffffffffff811115613469577f4e487b7100000000000000000000000000000000000000000000000000000000600052604160045260246000fd5b6040519080825280601f01601f19166020018201604052801561349b5781602001600182028036833780820191505090505b50905060006040518060600160405280604081526020016158d8604091399050600181016020830160005b8681101561353f5760038101905062ffffff818a015116603f8160121c168401518060081b905060ff603f83600c1c1686015116810190508060081b905060ff603f8360061c1686015116810190508060081b905060ff603f831686015116810190508060e01b905080845260048401935050506134c6565b506003860660018114613559576002811461356957613574565b613d3d60f01b6002830352613574565b603d60f81b60018303525b508484525050819450505050505b919050565b60007f01ffc9a7000000000000000000000000000000000000000000000000000000007bffffffffffffffffffffffffffffffffffffffffffffffffffffffff1916827bffffffffffffffffffffffffffffffffffffffffffffffffffffffff1916149050919050565b60008160405160200161360491906146cc565b6040516020818303038152906040528051906020012060001c9050919050565b61362f83838361392a565b600073ffffffffffffffffffffffffffffffffffffffff168373ffffffffffffffffffffffffffffffffffffffff1614156136725761366d8161392f565b6136b1565b8173ffffffffffffffffffffffffffffffffffffffff168373ffffffffffffffffffffffffffffffffffffffff16146136b0576136af8382613978565b5b5b600073ffffffffffffffffffffffffffffffffffffffff168273ffffffffffffffffffffffffffffffffffffffff1614156136f4576136ef81613ae5565b613733565b8273ffffffffffffffffffffffffffffffffffffffff168273ffffffffffffffffffffffffffffffffffffffff1614613732576137318282613c28565b5b5b505050565b6137428383613ca7565b61374f6000848484613793565b61378e576040517f08c379a0000000000000000000000000000000000000000000000000000000008152600401613785906149be565b60405180910390fd5b505050565b60006137b48473ffffffffffffffffffffffffffffffffffffffff16613e75565b1561391d578373ffffffffffffffffffffffffffffffffffffffff1663150b7a026137dd612c03565b8786866040518563ffffffff1660e01b81526004016137ff9493929190614915565b602060405180830381600087803b15801561381957600080fd5b505af192505050801561384a57506040513d601f19601f820116820180604052508101906138479190614178565b60015b6138cd573d806000811461387a576040519150601f19603f3d011682016040523d82523d6000602084013e61387f565b606091505b506000815114156138c5576040517f08c379a00000000000000000000000000000000000000000000000000000000081526004016138bc906149be565b60405180910390fd5b805181602001fd5b63150b7a0260e01b7bffffffffffffffffffffffffffffffffffffffffffffffffffffffff1916817bffffffffffffffffffffffffffffffffffffffffffffffffffffffff191614915050613922565b600190505b949350505050565b505050565b6008805490506009600083815260200190815260200160002081905550600881908060018154018082558091505060019003906000526020600020016000909190919091505550565b6000600161398584611105565b61398f9190614da8565b9050600060076000848152602001908152602001600020549050818114613a74576000600660008673ffffffffffffffffffffffffffffffffffffffff1673ffffffffffffffffffffffffffffffffffffffff168152602001908152602001600020600084815260200190815260200160002054905080600660008773ffffffffffffffffffffffffffffffffffffffff1673ffffffffffffffffffffffffffffffffffffffff168152602001908152602001600020600084815260200190815260200160002081905550816007600083815260200190815260200160002081905550505b6007600084815260200190815260200160002060009055600660008573ffffffffffffffffffffffffffffffffffffffff1673ffffffffffffffffffffffffffffffffffffffff16815260200190815260200160002060008381526020019081526020016000206000905550505050565b60006001600880549050613af99190614da8565b9050600060096000848152602001908152602001600020549050600060088381548110613b4f577f4e487b7100000000000000000000000000000000000000000000000000000000600052603260045260246000fd5b906000526020600020015490508060088381548110613b97577f4e487b7100000000000000000000000000000000000000000000000000000000600052603260045260246000fd5b906000526020600020018190555081600960008381526020019081526020016000208190555060096000858152602001908152602001600020600090556008805480613c0c577f4e487b7100000000000000000000000000000000000000000000000000000000600052603160045260246000fd5b6001900381819060005260206000200160009055905550505050565b6000613c3383611105565b905081600660008573ffffffffffffffffffffffffffffffffffffffff1673ffffffffffffffffffffffffffffffffffffffff168152602001908152602001600020600083815260200190815260200160002081905550806007600084815260200190815260200160002081905550505050565b600073ffffffffffffffffffffffffffffffffffffffff168273ffffffffffffffffffffffffffffffffffffffff161415613d17576040517f08c379a0000000000000000000000000000000000000000000000000000000008152600401613d0e90614ade565b60405180910390fd5b613d2081612b97565b15613d60576040517f08c379a0000000000000000000000000000000000000000000000000000000008152600401613d57906149fe565b60405180910390fd5b613d6c60008383613624565b6001600360008473ffffffffffffffffffffffffffffffffffffffff1673ffffffffffffffffffffffffffffffffffffffff1681526020019081526020016000206000828254613dbc9190614cc7565b92505081905550816002600083815260200190815260200160002060006101000a81548173ffffffffffffffffffffffffffffffffffffffff021916908373ffffffffffffffffffffffffffffffffffffffff160217905550808273ffffffffffffffffffffffffffffffffffffffff16600073ffffffffffffffffffffffffffffffffffffffff167fddf252ad1be2c89b69c2b068fc378daa952ba7f163c4a11628f55a4df523b3ef60405160405180910390a45050565b600080823b905060008111915050919050565b6040518061022001604052806011905b6060815260200190600190039081613e985790505090565b60405180604001604052806002905b6060815260200190600190039081613ebf5790505090565b6000613eea613ee584614c3e565b614c19565b905082815260208101848484011115613f0257600080fd5b613f0d848285614e50565b509392505050565b600081359050613f2481615787565b92915050565b600081359050613f398161579e565b92915050565b600081359050613f4e816157b5565b92915050565b600081519050613f63816157b5565b92915050565b600082601f830112613f7a57600080fd5b8135613f8a848260208601613ed7565b91505092915050565b600081359050613fa2816157cc565b92915050565b600060208284031215613fba57600080fd5b6000613fc884828501613f15565b91505092915050565b60008060408385031215613fe457600080fd5b6000613ff285828601613f15565b925050602061400385828601613f15565b9150509250929050565b60008060006060848603121561402257600080fd5b600061403086828701613f15565b935050602061404186828701613f15565b925050604061405286828701613f93565b9150509250925092565b6000806000806080858703121561407257600080fd5b600061408087828801613f15565b945050602061409187828801613f15565b93505060406140a287828801613f93565b925050606085013567ffffffffffffffff8111156140bf57600080fd5b6140cb87828801613f69565b91505092959194509250565b600080604083850312156140ea57600080fd5b60006140f885828601613f15565b925050602061410985828601613f2a565b9150509250929050565b6000806040838503121561412657600080fd5b600061413485828601613f15565b925050602061414585828601613f93565b9150509250929050565b60006020828403121561416157600080fd5b600061416f84828501613f3f565b91505092915050565b60006020828403121561418a57600080fd5b600061419884828501613f54565b91505092915050565b6000602082840312156141b357600080fd5b60006141c184828501613f93565b91505092915050565b6141d381614ddc565b82525050565b6141e281614dee565b82525050565b60006141f382614c84565b6141fd8185614c9a565b935061420d818560208601614e5f565b6142168161502b565b840191505092915050565b600061422c82614c8f565b6142368185614cab565b9350614246818560208601614e5f565b61424f8161502b565b840191505092915050565b600061426582614c8f565b61426f8185614cbc565b935061427f818560208601614e5f565b80840191505092915050565b6000815461429881614e92565b6142a28186614cbc565b945060018216600081146142bd57600181146142ce57614301565b60ff19831686528186019350614301565b6142d785614c6f565b60005b838110156142f9578154818901526001820191506020810190506142da565b838801955050505b50505092915050565b6000614317601183614cbc565b91506143228261503c565b601182019050919050565b600061433a602b83614cab565b915061434582615065565b604082019050919050565b600061435d603283614cab565b9150614368826150b4565b604082019050919050565b6000614380602683614cab565b915061438b82615103565b604082019050919050565b60006143a3601c83614cab565b91506143ae82615152565b602082019050919050565b60006143c6602483614cab565b91506143d18261517b565b604082019050919050565b60006143e9601983614cab565b91506143f4826151ca565b602082019050919050565b600061440c600283614cbc565b9150614417826151f3565b600282019050919050565b600061442f602c83614cab565b915061443a8261521c565b604082019050919050565b6000614452600183614cbc565b915061445d8261526b565b600182019050919050565b6000614475603883614cab565b915061448082615294565b604082019050919050565b6000614498600183614cbc565b91506144a3826152e3565b600182019050919050565b60006144bb602a83614cab565b91506144c68261530c565b604082019050919050565b60006144de602983614cab565b91506144e98261535b565b604082019050919050565b6000614501600283614cbc565b915061450c826153aa565b600282019050919050565b6000614524602083614cab565b915061452f826153d3565b602082019050919050565b6000614547602c83614cab565b9150614552826153fc565b604082019050919050565b600061456a602083614cab565b91506145758261544b565b602082019050919050565b600061458d601083614cab565b915061459882615474565b602082019050919050565b60006145b0602983614cab565b91506145bb8261549d565b604082019050919050565b60006145d461010083614cbc565b91506145df826154ec565b61010082019050919050565b60006145f8602183614cab565b91506146038261561f565b604082019050919050565b600061461b601d83614cbc565b91506146268261566e565b601d82019050919050565b600061463e600383614cbc565b915061464982615697565b600382019050919050565b6000614661603183614cab565b915061466c826156c0565b604082019050919050565b6000614684602c83614cab565b915061468f8261570f565b604082019050919050565b60006146a7601f83614cab565b91506146b28261575e565b602082019050919050565b6146c681614e46565b82525050565b60006146d8828461425a565b915081905092915050565b60006146ef828561425a565b91506146fb828461425a565b91508190509392505050565b6000614713828c61425a565b915061471f828b61425a565b915061472b828a61425a565b9150614737828961425a565b9150614743828861425a565b915061474f828761425a565b915061475b828661425a565b9150614767828561425a565b9150614773828461425a565b91508190509a9950505050505050505050565b6000614792828561425a565b915061479d82614445565b91506147a9828461425a565b91508190509392505050565b60006147c1828561425a565b91506147cc82614445565b91506147d8828461428b565b91508190509392505050565b60006147ef8261430a565b91506147fb828561425a565b9150614806826145c6565b9150614812828461425a565b915061481d826144f4565b91508190509392505050565b60006148348261448b565b9150614840828661425a565b915061484b82614445565b9150614857828561425a565b9150614862826143ff565b915061486e828461425a565b9150819050949350505050565b60006148868261448b565b9150614892828661425a565b915061489d82614445565b91506148a9828561425a565b91506148b4826143ff565b91506148c0828461425a565b91506148cb82614631565b9150819050949350505050565b60006148e38261460e565b91506148ef828461425a565b915081905092915050565b600060208201905061490f60008301846141ca565b92915050565b600060808201905061492a60008301876141ca565b61493760208301866141ca565b61494460408301856146bd565b818103606083015261495681846141e8565b905095945050505050565b600060208201905061497660008301846141d9565b92915050565b600060208201905081810360008301526149968184614221565b905092915050565b600060208201905081810360008301526149b78161432d565b9050919050565b600060208201905081810360008301526149d781614350565b9050919050565b600060208201905081810360008301526149f781614373565b9050919050565b60006020820190508181036000830152614a1781614396565b9050919050565b60006020820190508181036000830152614a37816143b9565b9050919050565b60006020820190508181036000830152614a57816143dc565b9050919050565b60006020820190508181036000830152614a7781614422565b9050919050565b60006020820190508181036000830152614a9781614468565b9050919050565b60006020820190508181036000830152614ab7816144ae565b9050919050565b60006020820190508181036000830152614ad7816144d1565b9050919050565b60006020820190508181036000830152614af781614517565b9050919050565b60006020820190508181036000830152614b178161453a565b9050919050565b60006020820190508181036000830152614b378161455d565b9050919050565b60006020820190508181036000830152614b5781614580565b9050919050565b60006020820190508181036000830152614b77816145a3565b9050919050565b60006020820190508181036000830152614b97816145eb565b9050919050565b60006020820190508181036000830152614bb781614654565b9050919050565b60006020820190508181036000830152614bd781614677565b9050919050565b60006020820190508181036000830152614bf78161469a565b9050919050565b6000602082019050614c1360008301846146bd565b92915050565b6000614c23614c34565b9050614c2f8282614ec4565b919050565b6000604051905090565b600067ffffffffffffffff821115614c5957614c58614ffc565b5b614c628261502b565b9050602081019050919050565b60008190508160005260206000209050919050565b600081519050919050565b600081519050919050565b600082825260208201905092915050565b600082825260208201905092915050565b600081905092915050565b6000614cd282614e46565b9150614cdd83614e46565b9250827fffffffffffffffffffffffffffffffffffffffffffffffffffffffffffffffff03821115614d1257614d11614f6f565b5b828201905092915050565b6000614d2882614e46565b9150614d3383614e46565b925082614d4357614d42614f9e565b5b828204905092915050565b6000614d5982614e46565b9150614d6483614e46565b9250817fffffffffffffffffffffffffffffffffffffffffffffffffffffffffffffffff0483118215151615614d9d57614d9c614f6f565b5b828202905092915050565b6000614db382614e46565b9150614dbe83614e46565b925082821015614dd157614dd0614f6f565b5b828203905092915050565b6000614de782614e26565b9050919050565b60008115159050919050565b60007fffffffff0000000000000000000000000000000000000000000000000000000082169050919050565b600073ffffffffffffffffffffffffffffffffffffffff82169050919050565b6000819050919050565b82818337600083830152505050565b60005b83811015614e7d578082015181840152602081019050614e62565b83811115614e8c576000848401525b50505050565b60006002820490506001821680614eaa57607f821691505b60208210811415614ebe57614ebd614fcd565b5b50919050565b614ecd8261502b565b810181811067ffffffffffffffff82111715614eec57614eeb614ffc565b5b80604052505050565b6000614f0082614e46565b91507fffffffffffffffffffffffffffffffffffffffffffffffffffffffffffffffff821415614f3357614f32614f6f565b5b600182019050919050565b6000614f4982614e46565b9150614f5483614e46565b925082614f6457614f63614f9e565b5b828206905092915050565b7f4e487b7100000000000000000000000000000000000000000000000000000000600052601160045260246000fd5b7f4e487b7100000000000000000000000000000000000000000000000000000000600052601260045260246000fd5b7f4e487b7100000000000000000000000000000000000000000000000000000000600052602260045260246000fd5b7f4e487b7100000000000000000000000000000000000000000000000000000000600052604160045260246000fd5b6000601f19601f8301169050919050565b7f7b226e616d65223a202250757273652023000000000000000000000000000000600082015250565b7f455243373231456e756d657261626c653a206f776e657220696e646578206f7560008201527f74206f6620626f756e6473000000000000000000000000000000000000000000602082015250565b7f4552433732313a207472616e7366657220746f206e6f6e20455243373231526560008201527f63656976657220696d706c656d656e7465720000000000000000000000000000602082015250565b7f4f776e61626c653a206e6577206f776e657220697320746865207a65726f206160008201527f6464726573730000000000000000000000000000000000000000000000000000602082015250565b7f4552433732313a20746f6b656e20616c7265616479206d696e74656400000000600082015250565b7f4552433732313a207472616e7366657220746f20746865207a65726f2061646460008201527f7265737300000000000000000000000000000000000000000000000000000000602082015250565b7f4552433732313a20617070726f766520746f2063616c6c657200000000000000600082015250565b7f2220000000000000000000000000000000000000000000000000000000000000600082015250565b7f4552433732313a206f70657261746f7220717565727920666f72206e6f6e657860008201527f697374656e7420746f6b656e0000000000000000000000000000000000000000602082015250565b7f2000000000000000000000000000000000000000000000000000000000000000600082015250565b7f4552433732313a20617070726f76652063616c6c6572206973206e6f74206f7760008201527f6e6572206e6f7220617070726f76656420666f7220616c6c0000000000000000602082015250565b7f2200000000000000000000000000000000000000000000000000000000000000600082015250565b7f4552433732313a2062616c616e636520717565727920666f7220746865207a6560008201527f726f206164647265737300000000000000000000000000000000000000000000602082015250565b7f4552433732313a206f776e657220717565727920666f72206e6f6e657869737460008201527f656e7420746f6b656e0000000000000000000000000000000000000000000000602082015250565b7f227d000000000000000000000000000000000000000000000000000000000000600082015250565b7f4552433732313a206d696e7420746f20746865207a65726f2061646472657373600082015250565b7f4552433732313a20617070726f76656420717565727920666f72206e6f6e657860008201527f697374656e7420746f6b656e0000000000000000000000000000000000000000602082015250565b7f4f776e61626c653a2063616c6c6572206973206e6f7420746865206f776e6572600082015250565b7f546f6b656e20494420696e76616c696400000000000000000000000000000000600082015250565b7f4552433732313a207472616e73666572206f6620746f6b656e2074686174206960008201527f73206e6f74206f776e0000000000000000000000000000000000000000000000602082015250565b7f222c20226465736372697074696f6e223a20224c6f6f742069732072616e646f60008201527f6d697a656420616476656e747572657220676561722067656e6572617465642060208201527f616e642073746f726564206f6e20636861696e2e2053746174732c20696d616760408201527f65732c20616e64206f746865722066756e6374696f6e616c697479206172652060608201527f696e74656e74696f6e616c6c79206f6d697474656420666f72206f746865727360808201527f20746f20696e746572707265742e204665656c206672656520746f207573652060a08201527f4c6f6f7420696e20616e792077617920796f752077616e742e222c2022696d6160c08201527f6765223a2022646174613a696d6167652f7376672b786d6c3b6261736536342c60e082015250565b7f4552433732313a20617070726f76616c20746f2063757272656e74206f776e6560008201527f7200000000000000000000000000000000000000000000000000000000000000602082015250565b7f646174613a6170706c69636174696f6e2f6a736f6e3b6261736536342c000000600082015250565b7f202b310000000000000000000000000000000000000000000000000000000000600082015250565b7f4552433732313a207472616e736665722063616c6c6572206973206e6f74206f60008201527f776e6572206e6f7220617070726f766564000000000000000000000000000000602082015250565b7f455243373231456e756d657261626c653a20676c6f62616c20696e646578206f60008201527f7574206f6620626f756e64730000000000000000000000000000000000000000602082015250565b7f5265656e7472616e637947756172643a207265656e7472616e742063616c6c00600082015250565b61579081614ddc565b811461579b57600080fd5b50565b6157a781614dee565b81146157b257600080fd5b50565b6157be81614dfa565b81146157c957600080fd5b50565b6157d581614e46565b81146157e057600080fd5b5056fe3c2f746578743e3c7465787420783d2231302220793d2236302220636c6173733d2262617365223e3c2f746578743e3c7465787420783d2231302220793d223136302220636c6173733d2262617365223e3c2f746578743e3c7465787420783d2231302220793d223132302220636c6173733d2262617365223e3c2f746578743e3c7465787420783d2231302220793d2238302220636c6173733d2262617365223e3c2f746578743e3c7465787420783d2231302220793d223130302220636c6173733d2262617365223e3c2f746578743e3c7465787420783d2231302220793d223134302220636c6173733d2262617365223e4142434445464748494a4b4c4d4e4f505152535455565758595a6162636465666768696a6b6c6d6e6f707172737475767778797a303132333435363738392b2f3c73766720786d6c6e733d22687474703a2f2f7777772e77332e6f72672f323030302f73766722207072657365727665417370656374526174696f3d22784d696e594d696e206d656574222076696577426f783d223020302033353020333530223e3c7374796c653e2e62617365207b2066696c6c3a20626c61636b3b20666f6e742d66616d696c793a20637572736976653b20666f6e742d73697a653a20313470783b207d3c2f7374796c653e3c726563742077696474683d223130302522206865696768743d2231303025222066696c6c3d222346363941423122202f3e3c7465787420783d2231302220793d2232302220636c6173733d2262617365223e3c2f746578743e3c7465787420783d2231302220793d2234302220636c6173733d2262617365223ea26469706673582212205d1b37b64fe696a028f7b4ccbee77059a8826977f130addb705da8d416a6073664736f6c63430008040033",
  "immutableReferences": {},
  "source": "//   ___, __   _, ___,   ____  ____,\n//  (-|_)(-|  |  (-|_)  (-(__`(-|_,\n//   _|    |__|_, _| \\_, ____) _|__,\n//  (            (      (     (\n//\n// SPDX-License-Identifier: MIT\n\npragma solidity >=0.8.0 <0.9.0;\nimport \"@openzeppelin/contracts/token/ERC721/ERC721.sol\";\nimport \"@openzeppelin/contracts/token/ERC721/extensions/ERC721Enumerable.sol\";\nimport \"@openzeppelin/contracts/security/ReentrancyGuard.sol\";\nimport \"@openzeppelin/contracts/access/Ownable.sol\";\nimport \"@openzeppelin/contracts/utils/Counters.sol\";\n\ncontract Purse is ERC721Enumerable, ReentrancyGuard, Ownable {\n\n    using Counters for Counters.Counter;\n    Counters.Counter private _tokenIds;\n\n    string[] private weapons = [\n    \"Derringer\",\n    \"Pepper Spray\",\n    \"Glock\",\n    \"Sharp Keychain\",\n    \"Scissors\",\n    \"Metal Nail File\",\n    \"Ballistic Dart Launcher\",\n    \"Taser\",\n    \"Flashlight\",\n    \"Whistle\",\n    \"Umbrella\",\n    \"Hair Pin\",\n    \"Safety Pins\",\n    \"Ball-point Pen\",\n    \"Tweezers\"\n    ];\n\n    string[] private creams = [\n    \"Sunscreen\",\n    \"Moisturizer\",\n    \"Baby Powder\",\n    \"Roller Perfume\",\n    \"Wet Wipes\",\n    \"Band-Aids\",\n    \"Neosporin\",\n    \"Blotting Papers\",\n    \"Stain-eraser Pen\",\n    \"Hand Lotion\",\n    \"Hand Sanitizer\",\n    \"Mints\",\n    \"Tissues\",\n    \"Advil\",\n    \"Tampons\",\n    \"Sanitary Pads\",\n    \"Deoderant\"\n    ];\n\n    string[] private makeup = [\n    \"Red Lipstick\",\n    \"Pink Lipstick\",\n    \"Lip Balm\",\n    \"Chap Stick\",\n    \"Lip Gloss\",\n    \"Eyeliner\",\n    \"Powdered Compact\",\n    \"Mascara\",\n    \"Foundation\",\n    \"Blush\",\n    \"Bronzer\",\n    \"Contour Kit\",\n    \"Coverup\",\n    \"Lip Liner\",\n    \"Brow Brush\",\n    \"Nail Polish\"\n    ];\n\n    string[] private cards = [\n    \"Passport\",\n    \"Driver's License\",\n    \"State-issued ID\",\n    \"Gym Membership Card\",\n    \"Warehouse Membership Card\",\n    \"Library Card\",\n    \"Social Security Card\",\n    \"Birth Certificate\",\n    \"Credit Card\",\n    \"Debit Card\",\n    \"Medical Card\",\n    \"Birthday Card\"\n    ];\n\n    string[] private accessories = [\n    \"Scarf\",\n    \"Gloves\",\n    \"Earrings\",\n    \"Bracelet\",\n    \"Watch\",\n    \"Arm Band\",\n    \"Fitness Tracker\",\n    \"Smart Watch\",\n    \"Ballet Flats\",\n    \"Strappy Sandals\",\n    \"Bangles\",\n    \"Aviator Sunglasses\",\n    \"Giant Sunglasses\",\n    \"Drug Store Sunglasses\"\n    ];\n\n    string[] private sex = [\n    \"Condoms\",\n    \"Magnums\",\n    \"Vibrator\",\n    \"Pocket Rocket\",\n    \"Furry Handcuffs\",\n    \"Silk Blindfold\",\n    \"The Rabbit\",\n    \"Hitachi Magic Wand\",\n    \"Paddle\",\n    \"Lube\"\n    ];\n\n    string[] private necklaces = [\n    \"Necklace\",\n    \"Pendant\",\n    \"Choker\",\n    \"Collar\",\n    \"Long Necklaces\",\n    \"Gold Necklace\"\n    ];\n\n    string[] private rings = [\n    \"Engagement Ring\",\n    \"Wedding Ring\",\n    \"Promise Ring\",\n    \"Purity Ring\",\n    \"Independence Ring\"\n    ];\n\n    string[] private suffixes = [\n    \"of Gucci\",\n    \"of Chanel\",\n    \"of Balenciaga\",\n    \"of Versace\",\n    \"of Prada\",\n    \"of Tom Ford\",\n    \"of Hermes\",\n    \"of Fendi\",\n    \"of Burberry\",\n    \"of Givenchy\",\n    \"of Bulgari\",\n    \"of Armani\",\n    \"of Louis Vuitton\",\n    \"of Christian Dior\",\n    \"of Calvin Klein\",\n    \"of Marc Jacobs\"\n    ];\n\n    string[] private namePrefixes = [\n    \"Age-Defying\", \"Bedazzled\", \"Sparkling\", \"Diamond\", \"Couture\", \"Bespoke\", \"Custom\", \"Last Season's\",\n    \"This Season's\", \"Flattering\", \"Beautiful\", \"Lovely\", \"Angelic\", \"Sweet\", \"Demure\", \"Fierce\",\n    \"Basic\", \"Fancy\", \"Luxury\", \"Exclusive\", \"Special\", \"Cherished\", \"Precious\",\n    \"Youthful\", \"Clean\", \"Scented\", \"Brightening\", \"Lightening\", \"Smoothing\", \"Clarifying\",\n    \"Sexy\", \"Sultry\", \"Voluptuous\", \"Curvy\", \"Antique\", \"Vintage\", \"Elite\", \"Warming\", \"Comforting\", \"Soft\", \"Fluffy\",\n    \"Furry\", \"Faux\", \"Imitation\", \"Dainty\", \"Feminine\", \"Glorious\", \"Independent\"\n    ];\n\n    string[] private nameSuffixes = [\n    \"Pleasure\",\n    \"Silk\",\n    \"Glow\",\n    \"Communication\",\n    \"Understanding\",\n    \"Love\",\n    \"Share\",\n    \"Comfort\",\n    \"Warmth\",\n    \"Safety\"\n    ];\n\n    function random(string memory input) internal pure returns (uint256) {\n        return uint256(keccak256(abi.encodePacked(input)));\n    }\n\n    function getWeapon(uint256 tokenId) public view returns (string memory) {\n        return pluck(tokenId, \"WEAPON\", weapons);\n    }\n\n    function getCream(uint256 tokenId) public view returns (string memory) {\n        return pluck(tokenId, \"CREAM\", creams);\n    }\n\n    function getMakeup(uint256 tokenId) public view returns (string memory) {\n        return pluck(tokenId, \"MAKEUP\", makeup);\n    }\n\n    function getCards(uint256 tokenId) public view returns (string memory) {\n        return pluck(tokenId, \"CARDS\", cards);\n    }\n\n    function getAccessories(uint256 tokenId) public view returns (string memory) {\n        return pluck(tokenId, \"ACCESSORIES\", accessories);\n    }\n\n    function getSex(uint256 tokenId) public view returns (string memory) {\n        return pluck(tokenId, \"SEX\", sex);\n    }\n\n    function getNeck(uint256 tokenId) public view returns (string memory) {\n        return pluck(tokenId, \"NECK\", necklaces);\n    }\n\n    function getRing(uint256 tokenId) public view returns (string memory) {\n        return pluck(tokenId, \"RING\", rings);\n    }\n\n    function pluck(uint256 tokenId, string memory keyPrefix, string[] memory sourceArray) internal view returns (string memory) {\n        uint256 rand = random(string(abi.encodePacked(keyPrefix, toString(tokenId))));\n        string memory output = sourceArray[rand % sourceArray.length];\n        uint256 greatness = rand % 21;\n        if (greatness > 14) {\n            output = string(abi.encodePacked(output, \" \", suffixes[rand % suffixes.length]));\n        }\n        if (greatness >= 17) {\n            string[2] memory name;\n            name[0] = namePrefixes[rand % namePrefixes.length];\n            name[1] = nameSuffixes[rand % nameSuffixes.length];\n            if(greatness < 19) {\n                output = string(abi.encodePacked(name[0], ' ', output));\n            } else if (greatness == 19) {\n                output = string(abi.encodePacked('\"', name[0], ' ', name[1], '\" ', output));\n            } else {\n                output = string(abi.encodePacked('\"', name[0], ' ', name[1], '\" ', output, \" +1\"));\n            }\n        }\n        return output;\n    }\n\n    function tokenURI(uint256 tokenId) override public view returns (string memory) {\n        string[17] memory parts;\n        parts[0] = '<svg xmlns=\"http://www.w3.org/2000/svg\" preserveAspectRatio=\"xMinYMin meet\" viewBox=\"0 0 350 350\"><style>.base { fill: black; font-family: cursive; font-size: 14px; }</style><rect width=\"100%\" height=\"100%\" fill=\"#F69AB1\" /><text x=\"10\" y=\"20\" class=\"base\">';\n\n        parts[1] = getWeapon(tokenId);\n\n        parts[2] = '</text><text x=\"10\" y=\"40\" class=\"base\">';\n\n        parts[3] = getCream(tokenId);\n\n        parts[4] = '</text><text x=\"10\" y=\"60\" class=\"base\">';\n\n        parts[5] = getMakeup(tokenId);\n\n        parts[6] = '</text><text x=\"10\" y=\"80\" class=\"base\">';\n\n        parts[7] = getCards(tokenId);\n\n        parts[8] = '</text><text x=\"10\" y=\"100\" class=\"base\">';\n\n        parts[9] = getAccessories(tokenId);\n\n        parts[10] = '</text><text x=\"10\" y=\"120\" class=\"base\">';\n\n        parts[11] = getSex(tokenId);\n\n        parts[12] = '</text><text x=\"10\" y=\"140\" class=\"base\">';\n\n        parts[13] = getNeck(tokenId);\n\n        parts[14] = '</text><text x=\"10\" y=\"160\" class=\"base\">';\n\n        parts[15] = getRing(tokenId);\n\n        parts[16] = '</text></svg>';\n\n        string memory output = string(abi.encodePacked(parts[0], parts[1], parts[2], parts[3], parts[4], parts[5], parts[6], parts[7], parts[8]));\n        output = string(abi.encodePacked(output, parts[9], parts[10], parts[11], parts[12], parts[13], parts[14], parts[15], parts[16]));\n\n        string memory json = Base64.encode(bytes(string(abi.encodePacked('{\"name\": \"Purse #', toString(tokenId), '\", \"description\": \"Loot is randomized adventurer gear generated and stored on chain. Stats, images, and other functionality are intentionally omitted for others to interpret. Feel free to use Loot in any way you want.\", \"image\": \"data:image/svg+xml;base64,', Base64.encode(bytes(output)), '\"}'))));\n        output = string(abi.encodePacked('data:application/json;base64,', json));\n\n        return output;\n    }\n\n    function mint() public {\n        _tokenIds.increment();\n        claim(_tokenIds.current());\n    }\n\n    function claim(uint256 tokenId) internal nonReentrant {\n        require(tokenId > 0 && tokenId < 7778, \"Token ID invalid\");\n        _safeMint(_msgSender(), tokenId);\n    }\n\n    function ownerClaim(uint256 tokenId) public nonReentrant onlyOwner {\n        require(tokenId > 7777 && tokenId < 8009, \"Token ID invalid\");\n        _safeMint(owner(), tokenId);\n    }\n\n    function toString(uint256 value) internal pure returns (string memory) {\n        // Inspired by OraclizeAPI's implementation - MIT license\n        // https://github.com/oraclize/ethereum-api/blob/b42146b063c7d6ee1358846c198246239e9360e8/oraclizeAPI_0.4.25.sol\n\n        if (value == 0) {\n            return \"0\";\n        }\n        uint256 temp = value;\n        uint256 digits;\n        while (temp != 0) {\n            digits++;\n            temp /= 10;\n        }\n        bytes memory buffer = new bytes(digits);\n        while (value != 0) {\n            digits -= 1;\n            buffer[digits] = bytes1(uint8(48 + uint256(value % 10)));\n            value /= 10;\n        }\n        return string(buffer);\n    }\n\n    constructor() ERC721(\"Purse\", \"PURSE\") Ownable() {}\n}\n\n/// [MIT License]\n/// @title Base64\n/// @notice Provides a function for encoding some bytes in base64\n/// @author Brecht Devos <brecht@loopring.org>\nlibrary Base64 {\n    bytes internal constant TABLE = \"ABCDEFGHIJKLMNOPQRSTUVWXYZabcdefghijklmnopqrstuvwxyz0123456789+/\";\n\n    /// @notice Encodes some bytes to the base64 representation\n    function encode(bytes memory data) internal pure returns (string memory) {\n        uint256 len = data.length;\n        if (len == 0) return \"\";\n\n        // multiply by 4/3 rounded up\n        uint256 encodedLen = 4 * ((len + 2) / 3);\n\n        // Add some extra buffer at the end\n        bytes memory result = new bytes(encodedLen + 32);\n\n        bytes memory table = TABLE;\n\n        assembly {\n            let tablePtr := add(table, 1)\n            let resultPtr := add(result, 32)\n\n            for {\n                let i := 0\n            } lt(i, len) {\n\n            } {\n                i := add(i, 3)\n                let input := and(mload(add(data, i)), 0xffffff)\n\n                let out := mload(add(tablePtr, and(shr(18, input), 0x3F)))\n                out := shl(8, out)\n                out := add(out, and(mload(add(tablePtr, and(shr(12, input), 0x3F))), 0xFF))\n                out := shl(8, out)\n                out := add(out, and(mload(add(tablePtr, and(shr(6, input), 0x3F))), 0xFF))\n                out := shl(8, out)\n                out := add(out, and(mload(add(tablePtr, and(input, 0x3F))), 0xFF))\n                out := shl(224, out)\n\n                mstore(resultPtr, out)\n\n                resultPtr := add(resultPtr, 4)\n            }\n\n            switch mod(len, 3)\n            case 1 {\n                mstore(sub(resultPtr, 2), shl(240, 0x3d3d))\n            }\n            case 2 {\n                mstore(sub(resultPtr, 1), shl(248, 0x3d))\n            }\n\n            mstore(result, encodedLen)\n        }\n\n        return string(result);\n    }\n}\n",
  "sourcePath": "/Users/Shared/Code/experimental/purse/contracts/Purse.sol",
  "compiler": {
    "name": "solc",
    "version": "0.8.4+commit.c7e474f2.Emscripten.clang"
  },
  "schemaVersion": "3.4.1",
  "updatedAt": "2021-09-04T02:12:27.718Z",
  "devdoc": {
    "kind": "dev",
    "methods": {
      "approve(address,uint256)": {
        "details": "See {IERC721-approve}."
      },
      "balanceOf(address)": {
        "details": "See {IERC721-balanceOf}."
      },
      "getApproved(uint256)": {
        "details": "See {IERC721-getApproved}."
      },
      "isApprovedForAll(address,address)": {
        "details": "See {IERC721-isApprovedForAll}."
      },
      "name()": {
        "details": "See {IERC721Metadata-name}."
      },
      "owner()": {
        "details": "Returns the address of the current owner."
      },
      "ownerOf(uint256)": {
        "details": "See {IERC721-ownerOf}."
      },
      "renounceOwnership()": {
        "details": "Leaves the contract without owner. It will not be possible to call `onlyOwner` functions anymore. Can only be called by the current owner. NOTE: Renouncing ownership will leave the contract without an owner, thereby removing any functionality that is only available to the owner."
      },
      "safeTransferFrom(address,address,uint256)": {
        "details": "See {IERC721-safeTransferFrom}."
      },
      "safeTransferFrom(address,address,uint256,bytes)": {
        "details": "See {IERC721-safeTransferFrom}."
      },
      "setApprovalForAll(address,bool)": {
        "details": "See {IERC721-setApprovalForAll}."
      },
      "supportsInterface(bytes4)": {
        "details": "See {IERC165-supportsInterface}."
      },
      "symbol()": {
        "details": "See {IERC721Metadata-symbol}."
      },
      "tokenByIndex(uint256)": {
        "details": "See {IERC721Enumerable-tokenByIndex}."
      },
      "tokenOfOwnerByIndex(address,uint256)": {
        "details": "See {IERC721Enumerable-tokenOfOwnerByIndex}."
      },
      "tokenURI(uint256)": {
        "details": "See {IERC721Metadata-tokenURI}."
      },
      "totalSupply()": {
        "details": "See {IERC721Enumerable-totalSupply}."
      },
      "transferFrom(address,address,uint256)": {
        "details": "See {IERC721-transferFrom}."
      },
      "transferOwnership(address)": {
        "details": "Transfers ownership of the contract to a new account (`newOwner`). Can only be called by the current owner."
      }
    },
    "version": 1
  },
  "userdoc": {
    "kind": "user",
    "methods": {},
    "version": 1
  }
}